{
  "_format": "hh-sol-artifact-1",
  "contractName": "Handicapper",
  "sourceName": "contracts/Handicapper.sol",
  "abi": [
    {
      "inputs": [],
      "stateMutability": "payable",
      "type": "constructor"
    },
    {
      "anonymous": false,
      "inputs": [
        {
          "indexed": true,
          "internalType": "address",
          "name": "golfer",
          "type": "address"
        },
        {
          "indexed": false,
          "internalType": "string",
          "name": "_course",
          "type": "string"
        },
        {
          "indexed": false,
          "internalType": "uint256",
          "name": "_score",
          "type": "uint256"
        },
        {
          "indexed": false,
          "internalType": "string",
          "name": "_date",
          "type": "string"
        },
        {
          "indexed": false,
          "internalType": "uint256",
          "name": "_slope",
          "type": "uint256"
        },
        {
          "indexed": false,
          "internalType": "uint256",
          "name": "_rating",
          "type": "uint256"
        },
        {
          "indexed": false,
          "internalType": "uint256",
          "name": "timestamp",
          "type": "uint256"
        }
      ],
      "name": "NewScore",
      "type": "event"
    },
    {
      "inputs": [
        {
          "internalType": "address",
          "name": "account",
          "type": "address"
        }
      ],
      "name": "balanceOf",
      "outputs": [
        {
          "internalType": "uint256",
          "name": "",
          "type": "uint256"
        }
      ],
      "stateMutability": "view",
      "type": "function"
    },
    {
      "inputs": [],
      "name": "getAllScores",
      "outputs": [
        {
          "components": [
            {
              "internalType": "address",
              "name": "golfer",
              "type": "address"
            },
            {
              "internalType": "string",
              "name": "course",
              "type": "string"
            },
            {
              "internalType": "uint256",
              "name": "score",
              "type": "uint256"
            },
            {
              "internalType": "string",
              "name": "date",
              "type": "string"
            },
            {
              "internalType": "uint256",
              "name": "slope",
              "type": "uint256"
            },
            {
              "internalType": "uint256",
              "name": "rating",
              "type": "uint256"
            },
            {
              "internalType": "uint256",
              "name": "timestamp",
              "type": "uint256"
            }
          ],
          "internalType": "struct Handicapper.Score[]",
          "name": "",
          "type": "tuple[]"
        }
      ],
      "stateMutability": "view",
      "type": "function"
    },
    {
      "inputs": [],
      "name": "getSupply",
      "outputs": [
        {
          "internalType": "uint256",
          "name": "",
          "type": "uint256"
        }
      ],
      "stateMutability": "view",
      "type": "function"
    },
    {
      "inputs": [
        {
          "internalType": "address",
          "name": "",
          "type": "address"
        }
      ],
      "name": "lastSubmission",
      "outputs": [
        {
          "internalType": "uint256",
          "name": "",
          "type": "uint256"
        }
      ],
      "stateMutability": "view",
      "type": "function"
    },
    {
      "inputs": [],
      "name": "name",
      "outputs": [
        {
          "internalType": "string",
          "name": "",
          "type": "string"
        }
      ],
      "stateMutability": "view",
      "type": "function"
    },
    {
      "inputs": [],
      "name": "owner",
      "outputs": [
        {
          "internalType": "address",
          "name": "",
          "type": "address"
        }
      ],
      "stateMutability": "view",
      "type": "function"
    },
    {
      "inputs": [
        {
          "internalType": "string",
          "name": "_course",
          "type": "string"
        },
        {
          "internalType": "uint256",
          "name": "_score",
          "type": "uint256"
        },
        {
          "internalType": "string",
          "name": "_date",
          "type": "string"
        },
        {
          "internalType": "uint256",
          "name": "_slope",
          "type": "uint256"
        },
        {
          "internalType": "uint256",
          "name": "_rating",
          "type": "uint256"
        }
      ],
      "name": "submitScore",
      "outputs": [],
      "stateMutability": "nonpayable",
      "type": "function"
    },
    {
      "inputs": [],
      "name": "symbol",
      "outputs": [
        {
          "internalType": "string",
          "name": "",
          "type": "string"
        }
      ],
      "stateMutability": "view",
      "type": "function"
    },
    {
      "inputs": [],
      "name": "totalSupply",
      "outputs": [
        {
          "internalType": "uint256",
          "name": "",
          "type": "uint256"
        }
      ],
      "stateMutability": "view",
      "type": "function"
    },
    {
      "inputs": [
        {
          "internalType": "address",
          "name": "to",
          "type": "address"
        },
        {
          "internalType": "uint256",
          "name": "amount",
          "type": "uint256"
        }
      ],
      "name": "transfer",
      "outputs": [],
      "stateMutability": "nonpayable",
      "type": "function"
    }
  ],
  "bytecode": "0x60806040526040518060400160405280600e81526020017f4d792053636f726520546f6b656e0000000000000000000000000000000000008152506001908051906020019062000051929190620001c3565b506040518060400160405280600381526020017f5342540000000000000000000000000000000000000000000000000000000000815250600290805190602001906200009f929190620001c3565b50612710600455620000f16040518060400160405280601981526020017f53636f7474732068616e646963617020636f6e74726163742e00000000000000815250620000f760201b62000b161760201c565b620003a0565b62000197816040516024016200010e9190620002b4565b6040516020818303038152906040527f41304fac000000000000000000000000000000000000000000000000000000007bffffffffffffffffffffffffffffffffffffffffffffffffffffffff19166020820180517bffffffffffffffffffffffffffffffffffffffffffffffffffffffff83818316178352505050506200019a60201b60201c565b50565b60008151905060006a636f6e736f6c652e6c6f679050602083016000808483855afa5050505050565b828054620001d1906200032a565b90600052602060002090601f016020900481019282620001f5576000855562000241565b82601f106200021057805160ff191683800117855562000241565b8280016001018555821562000241579182015b828111156200024057825182559160200191906001019062000223565b5b50905062000250919062000254565b5090565b5b808211156200026f57600081600090555060010162000255565b5090565b60006200028082620002d8565b6200028c8185620002e3565b93506200029e818560208601620002f4565b620002a9816200038f565b840191505092915050565b60006020820190508181036000830152620002d0818462000273565b905092915050565b600081519050919050565b600082825260208201905092915050565b60005b8381101562000314578082015181840152602081019050620002f7565b8381111562000324576000848401525b50505050565b600060028204905060018216806200034357607f821691505b602082108114156200035a576200035962000360565b5b50919050565b7f4e487b7100000000000000000000000000000000000000000000000000000000600052602260045260246000fd5b6000601f19601f8301169050919050565b61171d80620003b06000396000f3fe608060405234801561001057600080fd5b506004361061009e5760003560e01c806370a082311161006657806370a082311461014957806387d06196146101795780638da5cb5b1461019757806395d89b41146101b5578063a9059cbb146101d35761009e565b806306fdde03146100a357806318160ddd146100c157806341d3c784146100df5780636c70679b146100fb5780636c9c2faf1461012b575b600080fd5b6100ab6101ef565b6040516100b891906112b7565b60405180910390f35b6100c961027d565b6040516100d691906113c8565b60405180910390f35b6100f960048036038101906100f49190610f58565b610283565b005b61011560048036038101906101109190610ef3565b6106a7565b60405161012291906113c8565b60405180910390f35b6101336106bf565b60405161014091906113c8565b60405180910390f35b610163600480360381019061015e9190610ef3565b6106c9565b60405161017091906113c8565b60405180910390f35b610181610712565b60405161018e9190611295565b60405180910390f35b61019f610913565b6040516101ac9190611251565b60405180910390f35b6101bd610939565b6040516101ca91906112b7565b60405180910390f35b6101ed60048036038101906101e89190610f1c565b6109c7565b005b600180546101fc906115c4565b80601f0160208091040260200160405190810160405280929190818152602001828054610228906115c4565b80156102755780601f1061024a57610100808354040283529160200191610275565b820191906000526020600020905b81548152906001019060200180831161025857829003601f168201915b505050505081565b60045481565b42601e600560003373ffffffffffffffffffffffffffffffffffffffff1673ffffffffffffffffffffffffffffffffffffffff168152602001908152602001600020546102d091906114aa565b10610310576040517f08c379a0000000000000000000000000000000000000000000000000000000008152600401610307906113a8565b60405180910390fd5b42600560003373ffffffffffffffffffffffffffffffffffffffff1673ffffffffffffffffffffffffffffffffffffffff168152602001908152602001600020819055506103d26040518060400160405280600581526020017f6c61737420000000000000000000000000000000000000000000000000000000815250600560003373ffffffffffffffffffffffffffffffffffffffff1673ffffffffffffffffffffffffffffffffffffffff16815260200190815260200160002054610baf565b3073ffffffffffffffffffffffffffffffffffffffff1663a9059cbb3360016040518363ffffffff1660e01b815260040161040e92919061126c565b600060405180830381600087803b15801561042857600080fd5b505af115801561043c573d6000803e3d6000fd5b5050505061047f6040518060400160405280600c81526020017f2573207375626d6974746564000000000000000000000000000000000000000081525033610c4b565b6105296040518060600160405280602581526020016116c3602591393073ffffffffffffffffffffffffffffffffffffffff166370a08231336040518263ffffffff1660e01b81526004016104d49190611251565b60206040518083038186803b1580156104ec57600080fd5b505afa158015610500573d6000803e3d6000fd5b505050506040513d601f19601f820116820180604052508101906105249190610fff565b610baf565b60036040518060e001604052803373ffffffffffffffffffffffffffffffffffffffff16815260200187815260200186815260200185815260200184815260200183815260200142815250908060018154018082558091505060019003906000526020600020906007020160009091909190915060008201518160000160006101000a81548173ffffffffffffffffffffffffffffffffffffffff021916908373ffffffffffffffffffffffffffffffffffffffff1602179055506020820151816001019080519060200190610600929190610da9565b50604082015181600201556060820151816003019080519060200190610627929190610da9565b506080820151816004015560a0820151816005015560c0820151816006015550503373ffffffffffffffffffffffffffffffffffffffff167fd94e177728b03164f4936e9021f20ad55ef499d81b2a122a4912c8347533075f86868686864260405161069896959493929190611339565b60405180910390a25050505050565b60056020528060005260406000206000915090505481565b6000600454905090565b6000600760008373ffffffffffffffffffffffffffffffffffffffff1673ffffffffffffffffffffffffffffffffffffffff168152602001908152602001600020549050919050565b60606003805480602002602001604051908101604052809291908181526020016000905b8282101561090a57838290600052602060002090600702016040518060e00160405290816000820160009054906101000a900473ffffffffffffffffffffffffffffffffffffffff1673ffffffffffffffffffffffffffffffffffffffff1673ffffffffffffffffffffffffffffffffffffffff1681526020016001820180546107bf906115c4565b80601f01602080910402602001604051908101604052809291908181526020018280546107eb906115c4565b80156108385780601f1061080d57610100808354040283529160200191610838565b820191906000526020600020905b81548152906001019060200180831161081b57829003601f168201915b505050505081526020016002820154815260200160038201805461085b906115c4565b80601f0160208091040260200160405190810160405280929190818152602001828054610887906115c4565b80156108d45780601f106108a9576101008083540402835291602001916108d4565b820191906000526020600020905b8154815290600101906020018083116108b757829003601f168201915b50505050508152602001600482015481526020016005820154815260200160068201548152505081526020019060010190610736565b50505050905090565b600660009054906101000a900473ffffffffffffffffffffffffffffffffffffffff1681565b60028054610946906115c4565b80601f0160208091040260200160405190810160405280929190818152602001828054610972906115c4565b80156109bf5780601f10610994576101008083540402835291602001916109bf565b820191906000526020600020905b8154815290600101906020018083116109a257829003601f168201915b505050505081565b8060045410610b125780600760008473ffffffffffffffffffffffffffffffffffffffff1673ffffffffffffffffffffffffffffffffffffffff1681526020019081526020016000206000828254610a1f91906114aa565b925050819055508060046000828254610a389190611500565b92505081905550610b066040518060400160405280601981526020017f546f6b656e206177617264656420746f2073656e6465723a20000000000000008152503073ffffffffffffffffffffffffffffffffffffffff166370a08231856040518263ffffffff1660e01b8152600401610ab19190611251565b60206040518083038186803b158015610ac957600080fd5b505afa158015610add573d6000803e3d6000fd5b505050506040513d601f19601f82011682018060405250810190610b019190610fff565b610baf565b610b11600454610ce7565b5b5050565b610bac81604051602401610b2a91906112b7565b6040516020818303038152906040527f41304fac000000000000000000000000000000000000000000000000000000007bffffffffffffffffffffffffffffffffffffffffffffffffffffffff19166020820180517bffffffffffffffffffffffffffffffffffffffffffffffffffffffff8381831617835250505050610d80565b50565b610c478282604051602401610bc5929190611309565b6040516020818303038152906040527f9710a9d0000000000000000000000000000000000000000000000000000000007bffffffffffffffffffffffffffffffffffffffffffffffffffffffff19166020820180517bffffffffffffffffffffffffffffffffffffffffffffffffffffffff8381831617835250505050610d80565b5050565b610ce38282604051602401610c619291906112d9565b6040516020818303038152906040527f319af333000000000000000000000000000000000000000000000000000000007bffffffffffffffffffffffffffffffffffffffffffffffffffffffff19166020820180517bffffffffffffffffffffffffffffffffffffffffffffffffffffffff8381831617835250505050610d80565b5050565b610d7d81604051602401610cfb91906113c8565b6040516020818303038152906040527ff5b1bba9000000000000000000000000000000000000000000000000000000007bffffffffffffffffffffffffffffffffffffffffffffffffffffffff19166020820180517bffffffffffffffffffffffffffffffffffffffffffffffffffffffff8381831617835250505050610d80565b50565b60008151905060006a636f6e736f6c652e6c6f679050602083016000808483855afa5050505050565b828054610db5906115c4565b90600052602060002090601f016020900481019282610dd75760008555610e1e565b82601f10610df057805160ff1916838001178555610e1e565b82800160010185558215610e1e579182015b82811115610e1d578251825591602001919060010190610e02565b5b509050610e2b9190610e2f565b5090565b5b80821115610e48576000816000905550600101610e30565b5090565b6000610e5f610e5a84611414565b6113e3565b905082815260208101848484011115610e7757600080fd5b610e82848285611582565b509392505050565b600081359050610e9981611694565b92915050565b600082601f830112610eb057600080fd5b8135610ec0848260208601610e4c565b91505092915050565b600081359050610ed8816116ab565b92915050565b600081519050610eed816116ab565b92915050565b600060208284031215610f0557600080fd5b6000610f1384828501610e8a565b91505092915050565b60008060408385031215610f2f57600080fd5b6000610f3d85828601610e8a565b9250506020610f4e85828601610ec9565b9150509250929050565b600080600080600060a08688031215610f7057600080fd5b600086013567ffffffffffffffff811115610f8a57600080fd5b610f9688828901610e9f565b9550506020610fa788828901610ec9565b945050604086013567ffffffffffffffff811115610fc457600080fd5b610fd088828901610e9f565b9350506060610fe188828901610ec9565b9250506080610ff288828901610ec9565b9150509295509295909350565b60006020828403121561101157600080fd5b600061101f84828501610ede565b91505092915050565b60006110348383611190565b905092915050565b61104581611534565b82525050565b61105481611534565b82525050565b600061106582611454565b61106f8185611477565b93508360208202850161108185611444565b8060005b858110156110bd578484038952815161109e8582611028565b94506110a98361146a565b925060208a01995050600181019050611085565b50829750879550505050505092915050565b6110d881611570565b82525050565b60006110e98261145f565b6110f38185611488565b9350611103818560208601611591565b61110c81611683565b840191505092915050565b60006111228261145f565b61112c8185611499565b935061113c818560208601611591565b61114581611683565b840191505092915050565b600061115d600f83611499565b91507f57616974203330207365636f6e647300000000000000000000000000000000006000830152602082019050919050565b600060e0830160008301516111a8600086018261103c565b50602083015184820360208601526111c082826110de565b91505060408301516111d56040860182611233565b50606083015184820360608601526111ed82826110de565b91505060808301516112026080860182611233565b5060a083015161121560a0860182611233565b5060c083015161122860c0860182611233565b508091505092915050565b61123c81611566565b82525050565b61124b81611566565b82525050565b6000602082019050611266600083018461104b565b92915050565b6000604082019050611281600083018561104b565b61128e60208301846110cf565b9392505050565b600060208201905081810360008301526112af818461105a565b905092915050565b600060208201905081810360008301526112d18184611117565b905092915050565b600060408201905081810360008301526112f38185611117565b9050611302602083018461104b565b9392505050565b600060408201905081810360008301526113238185611117565b90506113326020830184611242565b9392505050565b600060c08201905081810360008301526113538189611117565b90506113626020830188611242565b81810360408301526113748187611117565b90506113836060830186611242565b6113906080830185611242565b61139d60a0830184611242565b979650505050505050565b600060208201905081810360008301526113c181611150565b9050919050565b60006020820190506113dd6000830184611242565b92915050565b6000604051905081810181811067ffffffffffffffff8211171561140a57611409611654565b5b8060405250919050565b600067ffffffffffffffff82111561142f5761142e611654565b5b601f19601f8301169050602081019050919050565b6000819050602082019050919050565b600081519050919050565b600081519050919050565b6000602082019050919050565b600082825260208201905092915050565b600082825260208201905092915050565b600082825260208201905092915050565b60006114b582611566565b91506114c083611566565b9250827fffffffffffffffffffffffffffffffffffffffffffffffffffffffffffffffff038211156114f5576114f46115f6565b5b828201905092915050565b600061150b82611566565b915061151683611566565b925082821015611529576115286115f6565b5b828203905092915050565b600061153f82611546565b9050919050565b600073ffffffffffffffffffffffffffffffffffffffff82169050919050565b6000819050919050565b600061157b82611566565b9050919050565b82818337600083830152505050565b60005b838110156115af578082015181840152602081019050611594565b838111156115be576000848401525b50505050565b600060028204905060018216806115dc57607f821691505b602082108114156115f0576115ef611625565b5b50919050565b7f4e487b7100000000000000000000000000000000000000000000000000000000600052601160045260246000fd5b7f4e487b7100000000000000000000000000000000000000000000000000000000600052602260045260246000fd5b7f4e487b7100000000000000000000000000000000000000000000000000000000600052604160045260246000fd5b6000601f19601f8301169050919050565b61169d81611534565b81146116a857600080fd5b50565b6116b481611566565b81146116bf57600080fd5b5056fe476176652073656e64657220612053425420746f6b656e2c2062616c616e63652069733a20a26469706673582212209c17e337397cf7cda9a4937bb2192778411b22865b35eeacf1a8c5ecf4a38dcd64736f6c63430008000033",
  "linkReferences": {},
  "deployedLinkReferences": {}
}